:020000040800F2
:10000000E80B0020CD010008DB22000837150008AE
:10001000D922000817030008792400080000000016
:10002000000000000000000000000000DF220008C7
:100030001903000800000000DD220008E12200088A
:10004000E7010008E7010008E7010008E7010008F0
:10005000E7010008E7010008E7010008E7010008E0
:10006000E7010008E7010008E7010008E7010008D0
:10007000E7010008E7010008E7010008E7010008C0
:10008000E7010008E7010008E7010008E7010008B0
:10009000E7010008E7010008E7010008E7010008A0
:1000A000E7010008E7010008E7010008E701000890
:1000B000E7010008E7010008E7010008451500080E
:1000C000391500085D15000851150008E701000802
:1000D000E7010008E7010008E7010008E701000860
:1000E000E7010008E7010008E7010008E701000850
:1000F000E7010008E7010008E7010008E701000840
:10010000E7010008E7010008E7010008E70100082F
:10011000E7010008E7010008E7010008E70100081F
:10012000E7010008E7010008E7010008E70100080F
:1001300000F002F800F03AF80AA090E8000C8244BF
:100140008344AAF10107DA4501D100F02FF8AFF29C
:10015000090EBAE80F0013F0010F18BFFB1A43F0A5
:1001600001031847745C0000945C0000103A24BF3F
:1001700078C878C1FAD8520724BF30C830C144BF0C
:1001800004680C607047000000230024002500264E
:10019000103A28BF78C1FBD8520728BF30C148BFEA
:1001A0000B6070471FB51FBD10B510BD00F07AF889
:1001B0001146FFF7F7FF02F0F1F900F098F803B4E9
:1001C000FFF7F2FF03BC00F09FF8000009488047EA
:1001D00009480047FEE7FEE7FEE7FEE7FEE7FEE729
:1001E000FEE7FEE7FEE7FEE704480549054A064B41
:1001F000704700004323000831010008E805002093
:10020000E80B0020E8070020E80700204FF000027C
:100210000429C0F0128010F0030C00F01B80CCF118
:10022000040CBCF1020F18BF00F8012BA8BF20F886
:10023000022BA1EB0C0100F00DB85FEAC17C24BFDA
:1002400000F8012B00F8012B48BF00F8012B704784
:100250004FF0000200B5134694469646203922BF5F
:10026000A0E80C50A0E80C50B1F12001BFF4F7AFAA
:10027000090728BFA0E80C5048BF0CC05DF804EB8C
:10028000890028BF40F8042B08BF704748BF20F8FA
:10029000022B11F0804F18BF00F8012B70477047F8
:1002A00070477047754600F02BF8AE46050069466A
:1002B000534620F00700854618B020B5FFF794FF9D
:1002C000BDE820404FF000064FF000074FF0000857
:1002D0004FF0000B21F00701AC46ACE8C009ACE8D8
:1002E000C009ACE8C009ACE8C0098D46704710B53C
:1002F0000446AFF300802046BDE81040FFF75FBF23
:10030000004870478805002001491820ABBEFEE771
:10031000260002007047FEE7704772B6FEE7000055
:100320002DE9F05F90F821100024022903D0042168
:100330008163012485E001680A6822F00E020A60E8
:1003400001680A6822F001020A603F4E3E4FB21572
:10035000DFF8F4C0DFF8F090DFF8ECA0DFF8E8B0E9
:10036000DFF8E4E00168783F13011502ACF1640C9A
:10037000A9F15009AAF13C0AABF1280BAEF1140E19
:100380004FF48018B14227D9B9420ED0614512D03E
:1003900049451DD0514518D0594518D0714501D156
:1003A000424615E0294EB14201D1012210E0274E0C
:1003B0001436B14201D110220AE0244E2836B1424F
:1003C00006D0224A3C32914201D11A4600E02A4628
:1003D0001E49091F0A602BE0B94213D0614517D0AE
:1003E000494522D051451DD059451DD0714501D1F7
:1003F00042461AE0B14202D14FF0807215E0134E2E
:10040000B14201D1012210E0104E1436B14201D1A7
:1004100010220AE00D4E2836B14206D00B4A3C327B
:10042000914201D11A4600E02A46074980394A60C4
:10043000012180F82110002180F82010416B01B1CA
:1004400088472046BDE8F09F800002400804024033
:1004500090F821007047000070B5044600F018F9CC
:100460000546601C02D004480078044400F010F9EE
:10047000401BA042FAD370BD000000202DE9F84FC8
:10048000DFF8C891002409F1040A0AF1040B23469D
:100490000F270BF1040ED1E00125A54006EA050265
:1004A000AA4276D1DFF8A8C14E68A6EB0C086645D3
:1004B0002BD00DDC032E34D005DC36B3012E19D041
:1004C000022E2FD11BE0112E16D0122E2AD119E0A8
:1004D000B8F5881F19D006DCB8F5803F15D0B8F5FF
:1004E000801F1FD111E0B8F5001F0ED0B8F5041F12
:1004F00018D10AE0CB6815E0CB681B1D12E0CB6871
:1005000008330FE0CB680C330CE08B682BB1012B68
:100510004FF0080303D0456104E0042302E00561C5
:1005200000E00023FF2A01D8064601E000F104069E
:100530004FEA840501D9A5F12005D6F8008007FA15
:1005400005FC28EA0C0803FA05F548EA0508C6F890
:1005500000804D68ED0070D53E4DAE6946F0010655
:10056000AE61AD6924F0030605F0010500953A4D32
:1005700006EB050CDCF80850A607360F07FA06F85C
:1005800025EA0805DFF8D480404503D14FF0000884
:1005900025E052E0DFF8C880404502D14FF0010865
:1005A0001DE0DFF8C080404502D14FF0020816E0A0
:1005B000DFF8B480404502D14FF003080FE0DFF8C8
:1005C000AC80404502D14FF0040808E0DFF8A0807D
:1005D000404502D14FF0050801E04FF0060808FA47
:1005E00006F848EA0508CCF808804D68D9F800609C
:1005F000ED034D4601D5164300E096432E604D684D
:10060000DAF80060AD03554601D5164300E0964385
:100610002E604D68DBF80060ED025D4601D51643A3
:1006200000E096432E604D68DEF80060AD0275462E
:1006300001D5164300E096432E60641C0A681646F6
:10064000E2407FF429AFBDE8F88F000000040140CC
:10065000000011100010024000000140000801409D
:10066000000C01400010014000140140001801403E
:10067000001C0140C26821EA02030A4043EA024129
:10068000016170470AB1016170470904FBE700008E
:1006900001488068704700000000002070477047E4
:1006A0002DE9F041016804464A694E6890F83E0021
:1006B0000025D743FA050BD4F243D20508D46FF4D2
:1006C000807201254A6121680A6842F400420A608A
:1006D000B90508D4F143C90505D422686FF4007147
:1006E00045F002055161790525D4F143C90522D4AD
:1006F000638D94F83D10226B202808D13BB9212945
:1007000010D029290ED0282901D1212A0AD0226807
:100710006FF48061516145F00405102806D040282F
:1007200004D008E0204601F06FFB04E02068016877
:1007300041F400710160380508D4F043C00505D4C8
:1007400021686FF4006045F008054861002D07D06E
:10075000206C284320642046BDE8F04100F062BFD1
:10076000BDE8F0812DE9F047026800215368C66AB0
:1007700090F83E4090F83D50102C12D0402C10D0F4
:10078000046C002C7DD05469E443A6077AD4DE4380
:10079000B60577D4036C03B19169BDE8F04701F069
:1007A0000FBB976951694FF42A0CC9435FEAC178BE
:1007B0004FF02A4904D066452AD04E4528D010E093
:1007C000DE43B6050DD4C16A614501D1012103E0C4
:1007D000C16A494501D10821C162BDE8F04701F075
:1007E00059BA0E0716D4DE43B60513D4416CC9B20C
:1007F0001161416B09B1896A29B9816B002907D060
:10080000896A002904D00068416841F400614160B0
:10081000BDE8F0878E0706D4DE43B60503D4BDE8F5
:10082000F04701F08BB9FE43526876074FEA025257
:100830001DD4002AECDB0A0608D4DA43520505D49D
:10084000490705D5BDE8F04701F01CB94907DFD4D9
:10085000D9438905DCD4212D05D0402CD8D1BDE861
:10086000F04701F05DBABDE8F04701F0C9B8002AD1
:10087000CEDB4A060BD4DA43520508D4490708D523
:1008800001E00DE00EE0BDE8F04700F0F7BF4907DA
:10089000BED4D9438905BBD4BDE8F04700F085BF7D
:1008A000916970E7E10606D4D943890503D4BDE810
:1008B000F04701F0EBBA2821212D27D0292D25D092
:1008C000650655D4DD436D0552D4640752D590F8C2
:1008D0003D30448D002C9BD01269446A2270426ADC
:1008E000521C4262428D521E4285428D002A8FD197
:1008F0002A2B8DD10268536823F48063536022222F
:10090000026380F83D1000F011FA81E7250623D438
:10091000DD436D0520D4640720D590F83D30448D2B
:10092000002CF2D0446A24781461426A521C42625C
:10093000428D521E4285428D002AE6D1292BE4D1F8
:100940000268536823F4806353602122026380F8B5
:100950003D1000F0ECF95BE76107D6D4D943890577
:10096000D3D4418D0029D0D0416A097811610AE0C1
:100970006107CAD4D9438905C7D4418D0029C4D0A1
:100980001169426A1170416A491C4162418D491ED8
:1009900041853DE77047000070B5040025D094F80C
:1009A0003D00002520B984F83C50204600F054F961
:1009B000242084F83D002068016821F001010160D5
:1009C0002068016841F4004101602068016821F459
:1009D0000041016000F0DAFA4D4A6168914201D8A5
:1009E0004C4900E04C49884201D2012070BD4B497E
:1009F0002368B0FBF1F15E6826F03F060E435E60AF
:100A00006368934206D94FF4967359434FF47A734F
:100A1000B1FBF3F12368491C1E6A26F03F063143FF
:100A200019626168914210D84900401EB0FBF1F292
:100A3000521CC2F30B02042A01D2042022E0B0FBB4
:100A4000F1F0401CC0F30B001CE0A268F2B301EB14
:100A5000C10303EB0116431EB3FBF6F35B1C43F427
:100A600080431B0549D092B301EBC10202EB011197
:100A7000401EB0FBF1F0401CC0F30B0040F480407E
:100A800040F400402168CA694CF6FF739A43104352
:100A9000C861D4E9071001432068026822F0C0024F
:100AA00011430160D4E9030101432068826848F2E0
:100AB000FF339A4311438160D4E90501084321685B
:100AC000CA6822F0FF021043C86001E00EE016E0A1
:100AD0002068016841F0010101602564202084F84C
:100AE0003D00256384F83E50002070BD01EB4106B7
:100AF000431EB3FBF6F35B1CB3E70120C2E701EB37
:100B00004101401EB0FBF1F0401CC0F30B00B7E701
:100B1000A086010080841E0000093D0040420F00B5
:100B200070477047704700002DE9F84F1F46904608
:100B30008A460446DDF82890FFF7AAFD054694F89A
:100B40003D0020287FD119230122404920460095ED
:100B500001F070FA002876D194F83C00012872D098
:100B6000012084F83C0020680168C90703D10168AE
:100B700041F0010101602068016821F40061016019
:100B8000212084F83D00102084F83E0000262664D1
:100B9000C4F824806785608D20852D48E0622B464F
:100BA0004A465146204600F0DDFE90B92068416972
:100BB0008069009036E02A464946204601F0B9FA9D
:100BC00050B1206C042804D12068016841F4007100
:100BD00001600120BDE8F88F606A21680078086133
:100BE000606A401C6062618D491E6185218D491ECD
:100BF00089B2218522685369DB435B070BD451B16D
:100C000000781061606A401C6062608D401E6085E3
:100C1000208D401E20852A464946204601F0E4F9F1
:100C20000028CED1208D0028C5D154F83D0B016895
:100C300041F400710160202004F81E09E677667710
:100C40000020C7E7FFE70220C4E700000200100011
:100C50000000FFFF7047704730B585B0002100915C
:100C60000191029103912D4D03682D4C1221032215
:100C70002C48AB4225D1A36943F00803A361A369C3
:100C8000039203F008030493C023CDE900316946C1
:100C9000FFF7F4FBE06940F40010E061E069002236
:100CA00000F40010049011461F2000F0A7F81F2048
:100CB00000F096F800221146202000F09FF8202036
:100CC00028E0194DAB4227D1A36943F00803A36183
:100CD000A369039203F0080304934FF44063CDE942
:100CE00000316946FFF7CAFBE06940F48000E0612B
:100CF000E069002200F4800004901146212000F0F9
:100D00007DF8212000F06CF800221146222000F02E
:100D100075F8222000F064F805B030BD00540040A2
:100D200000100240000C014000580040704770471E
:100D300002488168027811448160704700000020F9
:100D4000074810B5016841F010010160032000F070
:100D500075F80F2000F006F800F024F8002010BD10
:100D60000020024070B50D4D04464FF47A7128788A
:100D7000B1FBF0F00A490968B1FBF0F000F0DCFAD1
:100D800048B9102C07D200222146501E00F036F838
:100D900000206C6070BD012070BD000000000020CC
:100DA0000C0000200C4808B5816941F00101816107
:100DB000816901F001010091C16941F08051C16177
:100DC000C06900F0805000900448416821F0E06163
:100DD00041F00071416008BD001002400000014078
:100DE000002809DB00F01F0201219140400980002A
:100DF00000F1E020C0F8001170470000F0B40E4B85
:100E00001B680C46C3F30223C3F10705042D00D968
:100E10000425191D072901D2002300E0DB1E01264D
:100E200006FA05F1491E214099409E40761E164063
:100E30003143F0BC01F021BB0CED00E0064900F0AD
:100E4000070208684FF6FF03184040EA0220034AF1
:100E500010430860704700000CED00E00000FA0548
:100E60002DE9F0470F46050061D0434E306800F091
:100E70000700B84209D2306820F0070038433060DC
:100E8000306800F00700B84251D128683B4C810718
:100E900012D5400703D5606840F4E06060602878B0
:100EA000000703D5606840F4605060606068A9681E
:100EB00020F0F000084360602878C00728D06868F8
:100EC000012810D02168022810D0890700292EDAC5
:100ED000616821F0030101436160FFF7D9FB80469F
:100EE00041F288390DE021688903EFE78901EDE7D8
:100EF000FFF7CEFBA0EB0801494502D90320BDE86E
:100F0000F0876068696800F00C00B0EB810FEFD1EA
:100F1000306800F00700B8420BD9306820F00700B5
:100F200038433060306800F00700B84201D001203B
:100F3000E5E72878400705D56068E96820F4E060B7
:100F4000084360602878000706D56068296920F4A6
:100F5000605040EAC100606000F028F86168084A0B
:100F6000C1F30311515CC840064908600648006897
:100F7000FFF7F8FE0020C2E7002002400010024008
:100F8000EA3300080C000020040000200448054952
:100F900000684968044AC1F30221515CC8407047A7
:100FA0000C00002000100240FA33000812A185B0A6
:100FB0000FC98DE80F0014A0144A0068049051680E
:100FC000134801F00C03042B10D0082B0ED1C1F3F1
:100FD0008343C9031DF803000AD5516804AAC1F36D
:100FE0004041515C0A4A5043B0FBF1F005B07047F4
:100FF00008494843FAE70000020304050607080908
:101000000A0B0C0D0E0F1010010200000010024020
:1010100000127A0000093D002DE9F84F040070D05D
:101020002078C04DC00749D06868C0F3810001280E
:1010300007D06868C0F38100022809D16868C0033E
:1010400006D52868800339D560680028E7D035E0E8
:101050006068B0F5803F0BD010B1B0F5A02F11D073
:10106000286820F480302860286820F4802002E07E
:10107000286840F480302860606890B1FFF708FB72
:1010800006460AE0286840F480202860F0E700BFA8
:10109000FFF7FEFA801B642873D828688003F7D511
:1010A0000CE0FFF7F5FA064605E000BFFFF7F0FA9F
:1010B000801B6428F0D828688003F7D420789A4EE3
:1010C00080074FF001094FF0000839D5686810F02B
:1010D0000C0F07D06868C0F38100022809D1686846
:1010E000C00306D42868800714D52069012808D1D8
:1010F00010E02069B0B1C6F80090FFF7C9FA0746C2
:1011000005E00AE1FFF7C4FAC01B0228C4D828682A
:101110008007F7D52868616920F0F80040EAC1002F
:1011200028600DE0C6F80080FFF7B2FA074604E039
:10113000FFF7AEFAC01B022823D828688007F7D42F
:10114000207800072CD57948A169D9B1C0F8009062
:10115000FFF79EFA074604E0FFF79AFAC01B022841
:101160000FD8686A8007F7D571484FF4FA510068C4
:10117000B0FBF1F0009000BF0098411E0091FAD240
:101180000EE080E0C0F80080FFF782FA074604E036
:10119000FFF77EFAC01B022875D8686A8007F7D46B
:1011A0002078400760D5E8690027C00008D4E869C6
:1011B00040F08050E861E869012700F0805000901D
:1011C0005C480168C90513D40168834641F4807105
:1011D0000160FFF75DFA824606E000BFFFF758FAAC
:1011E000A0EB0A0064284ED8DBF80000C005F5D556
:1011F000E06801280AD008B1052813D0286A20F039
:1012000001002862286A20F0040002E0286A40F009
:1012100001002862E06841F2883B98B1FFF738FA94
:1012200082460BE0286A40F004002862EEE700BF27
:10123000FFF72EFAA0EB0A0159455AD8286A800711
:10124000F6D50CE0FFF724FA824605E0FFF720FA16
:10125000A0EB0A0159454CD8286A8007F6D41FB183
:10126000E86920F08050E861E06988B36968C1F3FB
:101270008101022944D00228C6F8608004D0FFF71B
:1012800007FA044638E034E0FFF702FA074604E0C4
:10129000FFF7FEF9C01B02282BD828688001F7D47D
:1012A000206AB0F5803F05D16868A16820F400305D
:1012B00008436860D4E908010843696821F474119F
:1012C00008436860C6F86090FFF7E2F9044606E05C
:1012D00025E000BFFFF7DCF9001B022809D82868C9
:1012E0008001F7D51BE000BFFFF7D2F9001B0228F1
:1012F00002D90320BDE8F88F28688001F4D40EE0FD
:101300000128F7D06868226A00F48031914204D144
:10131000616A00F47010884201D00120EAE70020E1
:10132000E8E7000000100240000042428004424210
:101330000C0000200070004010B5401EB0F1807F0E
:1013400001D3012010BD4FF0E02460610F21601730
:1013500001F093F80020A06107202061002010BD5B
:1013600070B590F83C20012A2CD0012480F83C4034
:10137000022280F83D2003685A689D6822F07006BA
:101380000A6832435A60104B02689A420ED00F4BE3
:101390009A420BD0B2F1804F08D00D4B9A4205D043
:1013A0000C4B9A4202D00C4B9A4204D1496825F06A
:1013B00080031943916080F83D40002180F83C1083
:1013C000084670BD022070BD002C01400034014071
:1013D0000004004000080040000C004010B504006C
:1013E00003D094F83D0010B107E0012010BD0020AB
:1013F00084F83C00204600F01FF8022084F83D00ED
:10140000211D206800F09EFF012084F8460084F82A
:101410003E0084F83F0084F8400084F8410084F8DE
:10142000420084F8430084F8440084F8450084F8BE
:101430003D00002010BD000008B500680649884244
:1014400008D10648816941F400618161806900F436
:101450000060009008BD0000002C01400010024018
:1014600070B5044690F83C00012817D0012584F897
:101470003C50022084F83D002068826822F0770208
:1014800022F47F4282600868502830D00DDC20288A
:101490004DD005DC98B310283BD148E0022070BD48
:1014A000302844D0402834D139E0602828D0702832
:1014B00006D0B0F5805F2CD0B0F5005F29D10AE0EE
:1014C000CB68D1E90121206800F082FF20688168A3
:1014D00041F0770109E0CB68D1E90121206800F0F3
:1014E00077FF2068816841F48041816011E0CA681B
:1014F0004968206800F07EFF5021206807E016E070
:10150000CA684968206800F086FF6021206800F002
:1015100069FF84F83D50002084F83C0070BDCA6823
:101520004968206800F066FF40212068EFE72268E4
:1015300001461046EBE7FEE70148FFF7B1B80000AF
:10154000180000200148FFF70DB900001800002026
:101550000148FFF7A5B800006C0000200148FFF724
:1015600001B900006C00002038B5406A002190F8F5
:101570003D202B4B46F2A8141B68B3FBF4F3C3EBDE
:10158000C30303EB830300933BB15B1E009303682B
:101590001B689B0505D5009BF6E7036C43F0200311
:1015A0000364436B03B19962836B03B1996203686F
:1015B0001C6824F480641C604185436B03B159634B
:1015C000836B03B1596303681C6824F001041C6039
:1015D00090F83D402023602C0BD0282434EA0202EE
:1015E0000FD080F83D3080F83E1000BFFFF7D2F9F1
:1015F00038BD80F83D3080F83E100164FFF74EF8AA
:1016000038BD0268136843F0010313600268136871
:1016100043F480631360016380F83D40E6E7000017
:101620000C00002070B5044690F83D0094F83E1080
:10163000102901D0402906D1222804D121680A6846
:1016400022F400620A60282131EA00024FF000050E
:101650004FF0200626D021684968090505D4602886
:1016600003D084F83D6084F83E50256320684168CB
:10167000090537D5416821F400614160606B3D493F
:1016800090F82120012A11D04163606BFEF748FEDB
:1016900038B32068016821F00101016084F83D60E1
:1016A000606B1CE0256384F83D10DFE7A06B4163AD
:1016B000A06BFEF735FEA0B120684169C943490619
:1016C00005D40069616A0870606A401C6062206825
:1016D000016821F00101016084F83D60A06B416B5D
:1016E000884710E094F83D10602910D04169C94343
:1016F000490605D40069616A0870606A401C60622E
:101700002046FFF747F9206CC1071CD115E084F88B
:101710003D6025644169C943490605D40069616A91
:101720000870606A401C60622068016821F0010155
:1017300001602046FEF7B2FFE5E7810703D44107C9
:1017400001D4000704D52068416821F4E0614160BC
:1017500094F83D00216C49070BD5282809D106488B
:10176000E062256384F83D6084F83E502046FFF730
:10177000D7F970BD691500080000FFFF01684A69CC
:10178000D24352050FD46FF480624A61002140F8C1
:10179000301F202242738173026942F00402026109
:1017A0000173012070470020704710B5C26A438D55
:1017B0000168042B06D0438D032B08D0438D022BE8
:1017C0001DD012E04A6822F480624A600CE04B6847
:1017D00023F480634B60042A06D0022A04D00168F7
:1017E0000A6822F480620A6001680969426A11701D
:1017F000416A491C4162418D491E418510BD012A43
:1018000030D0102A2ED0042A30D0022A2ED00A68D6
:1018100042F400720A6001680969426A1170416A03
:10182000491C4162428D521E4285026812690A704B
:10183000416A491C4162418D491E418501684A68DF
:1018400022F440724A60202180F83D1090F83E203A
:101850000021402A80F83E100CD012210163FFF7CE
:1018600060F910BD0A6822F48062D3E70A6842F486
:101870008062CFE70163FFF7EDF910BD38B590F84E
:101880003D10222914D1418D032912D9016809691B
:10189000426A1170416A491C4162418D491E41856D
:1018A000418D032904D10068416821F480614160C1
:1018B00038BDC26A022AFBD0012901D00029F7D124
:1018C000274946F2A81300220968B1FBF3F101EBA6
:1018D0008101009101682023009C641E009422D0A5
:1018E0000C68A405F8D40C6824F480640C600168CA
:1018F0004C6824F4E0644C6001680969446A217012
:10190000416A491C4162418D491E418580F83D3044
:1019100090F83E1080F83E2040291DD0122101632E
:10192000FFF7FFF838BD046C44F0200404644C68F1
:1019300024F4E0644C6001680969446A2170416ADA
:10194000491C4162418D491E418580F83D3080F837
:101950003E20FFF71FF838BD0263FFF77BF938BD63
:101960000C000020F8B50446C06A1E460D46174616
:10197000082807D0012805D010F5803F02D0206B41
:10198000122804D12068016841F480710160134677
:1019900000224FF001112046009600F04BFB40B1B1
:1019A00020680068C00502D54FF400702064032051
:1019B000F8BD2069B0F5804F0ED00620216800EAFE
:1019C000D51040F0F000086133463A460B492046F6
:1019D00000F064FB78B902E005F0FE0000E0E8B238
:1019E00021680861054933463A46891F204600F0C0
:1019F00055FB0028DCD00120F8BD000008000100E4
:101A000010B5C26A90F83D1021290BD1418D51B11A
:101A1000416A026809781161416A491C4162418D3D
:101A2000491E418510BD20230021082A13D0202AF9
:101A300011D012F5803F0ED00268546824F4E0649F
:101A400054601122026380F83E1080F83D3000BFE0
:101A5000FFF768F810BD0268546824F4E06454602D
:101A60000268146844F400741460016380F83D3027
:101A700090F83E2080F83E10402AE9D1FFF7EBF8BD
:101A800010BD000010B590F83D1090F83E30C26ACD
:101A9000048DB4B1212903D0402B11D122290FD1BB
:101AA000418DE1B390F83E10402942D0416A02686E
:101AB00009781161416A491C4162418D491E418585
:101AC00010BD2129E8D120230021082A13D0202A83
:101AD00011D012F5803F0ED00268546824F4E064FF
:101AE00054601122026380F83E1080F83D3000BF40
:101AF000FFF718F810BD0268546824F4E0645460DD
:101B00000268146844F400741460016380F83D3086
:101B100090F83E2080F83E10402AE9D100E002E033
:101B2000FFF799F810BD0068416821F480614160B9
:101B300010BDBDE8104000F0F3B8000078B590F893
:101B40003E50C26A046B90F83D6000230168222E6B
:101B500073D1066D0EB9402D6FD0056D1DB90569A5
:101B6000B5F5404F1BD0458D95B3468D484D012EA0
:101B700020D0448D022C4DD00C6844F480640C605D
:101B800001684C68240579D5AA4273D0012A71D026
:101B9000082A6FD0102A6DD0202A6BD06EE04A69D7
:101BA0008A6900920A6842F480720A60016D491CD9
:101BB000016578BDAA4214D10A6822F480620A60E5
:101BC00001684A68120504D50A6822F4806217E0A9
:101BD000FFE74A698A6900920A6842F400720A6063
:101BE00050E0082A10D0202A0ED0122C0AD0042A45
:101BF00003D0022A01D0102AE6D10A6842F480629A
:101C00000A603BE0012ADFD00A6822F480620A60A1
:101C10000168DEE7042A11D0022A0FD0102A0DD065
:101C20000C6844F400640C6001684C698C69009491
:101C30000C6824F480640C6008E025E00C6844F42F
:101C400080640C6001684C698969009101684C6886
:101C5000240517D5AA4207D0012A05D0082A03D0A7
:101C6000102A01D0202A0DD14A6842F480524A60DD
:101C700008E0FFE74A6842F480524A6001684A6916
:101C800089690091036578BD48698869009078BDCD
:101C90000000FFFF90F83E10402910D00169B1F517
:101CA000804F19D0016DA9B3016D012910D1416C8C
:101CB0005FF0F10201F4407142EAD11106E0016DDA
:101CC0000029416C05D0C9B241F0010100680161F1
:101CD000704701F0FE01F9E790F83D102129416CB1
:101CE00009D0C9B241F0010102681161416B29B10B
:101CF000896A49B902E001F0FE01F5E7816B00292C
:101D0000E6D0896A0029E3D00068416841F40061A7
:101D100041607047FFE7416CF02201F44071CBE76E
:101D200010B590F83D10026D22B3026D012A2FD03C
:101D3000026D022A1DD122292FD0428D0AB12129FC
:101D400033D0428D002A14D1212912D101684A686A
:101D500022F4E0624A6001680A6842F400720A6094
:101D600000210163202280F83D2080F83E10FEF71C
:101D700072FF10BDC16C0129816C02D0C1F3072133
:101D800008E00268C9B21161016D891C016510BDCE
:101D9000816CC9B20268116104E001680A6842F40A
:101DA00080720A60016D491CF0E7416A0268097897
:101DB0001161416A491C4162418D491E418510BD36
:101DC00038B50C4690F83D2000212825954302683F
:101DD0000B4605D051699169009180F83C3038BDBF
:101DE000556825F480655560E243540700D501210C
:101DF000120601D5828900E0028B80F83C3092B255
:101E0000FEF74DFC38BD00002DE9F04190F83D4053
:101E1000C26A002320261C4F01686FF48065082ADF
:101E200001D0202A01D1282C04D0212C16D04D61BC
:101E3000BDE8F081C7624A6822F4E0624A60016846
:101E40004D6101680A6822F480620A60036380F8C9
:101E50003D6080F83E30FEF763FEE9E7C76221226D
:101E6000026380F83D6080F83E304A6822F4E06208
:101E70004A6001684D6101680A6822F480620A6064
:101E8000FEF755FFD4E700000000FFFFF8B590F81B
:101E90003D6004460068416821F4E06141602068CB
:101EA000002541690091016841F00101016020684D
:101EB000016821F48061016020684168090520D52E
:101EC000474F222E48D02A2E46D0616B09684968B8
:101ED0006185618D19B1216C41F004012164416873
:101EE00021F400614160606BFEF7B2FA012808D06E
:101EF000606B4763606BFEF713FA10B1606B416B68
:101F00008847608D08B320684169C943490708D4F0
:101F10000069616A0870606A401C6062608D401EE2
:101F2000608520684169C943490608D40069616A2F
:101F30000870606A401C6062608D401E6085608D24
:101F400018B1206C40F004002064206C00B32046DF
:101F5000BDE8F840FFF766BBA16B09684968618579
:101F6000618D19B1216C41F004012164416821F4B3
:101F700000614160A06BFEF76BFA0128C1D0A06B35
:101F80004763A06BFEF7CCF90028BAD0A06BB6E788
:101F90002A2E06D12563282084F83D002046FEF72E
:101FA000C5FE94F83D10202028290DD0216B222950
:101FB00001D0222E07D1256384F83D0084F83E50DD
:101FC0002046FEF7B3FEF8BD0649E162256384F8BA
:101FD0003D0084F83E502046FEF7A2FDF8BD00000B
:101FE000691500080000FFFF70B516460D4604464F
:101FF0000DE02046FFF7C2FB08B1012070BD681C50
:1020000005D0FEF745FB801BA84207D835B12068F4
:102010004069C0434007ECD4002070BD002044F864
:10202000300F20216173A073216941F020012161EB
:102030002073E2E72DE9F0471E4690460D46044620
:10204000C1F30747DDF8209008E0701C06D0FEF7CA
:102050001FFBA0EB0900B0420FD876B12068012F1A
:1020600018D0806925EA00000004000C14D000217B
:102070004145EAD00020BDE8F087002044F8300F49
:1020800020216173A073216941F020012161207337
:102090000120F0E74069E5E70121E9E72DE9F04794
:1020A0009A4691460E46044600254FF02008C1F39B
:1020B000074725E020684069C043400514D42068E4
:1020C000016841F40071016021686FF4806048612B
:1020D000256384F83D8084F83E50206C40F0040075
:1020E000206484F83C501FE0B9F1FF3F08D0FEF7B0
:1020F000CFFAA0EB0A0149450CD8B9F1000F09D07D
:102100002068012F13D0806926EA00000004000C2B
:102110000BD0CFE744F8305F84F80D80A5732069B9
:1021200040F02000206125730120BDE8F087406960
:10213000EAE770B516460D4604460DE02046FFF767
:102140001DFB08B1012070BD681C05D0FEF7A0FA88
:10215000801BA84207D835B120684069C0430006FB
:10216000ECD4002070BD002044F8300F20216173B2
:10217000A073216941F0200121612073E2E7000092
:1021800010B586B000200090019002900390164890
:10219000816941F010018161816901F010010491B0
:1021A000816941F008018161816901F008010491B0
:1021B000816941F00401816180690C4C00F00400E8
:1021C0000490002220212046FEF75CFA2020012105
:1021D000CDE900010220CDE9021069462046FEF754
:1021E0004DF906B010BD000000100240000C014087
:1021F0000D4810B50B4901600C49416000214FF4B6
:1022000080428160C0E9031241618161C161016264
:10221000FEF7C2FB002803D0BDE81040FEF77DB8F2
:1022200010BD00000054004018000020801A060075
:102230000D4810B50B4901600C49416000214FF475
:1022400080428160C0E9031241618161C161016224
:10225000FEF7A2FB002803D0BDE81040FEF75DB8F2
:1022600010BD0000005800406C000020801A0600DD
:1022700010B586B00024174800940194029403948A
:1022800004941349059401604721C0E901144FF6F5
:10229000FF71C0E9031444618461FFF79FF808B13E
:1022A000FEF73BF84FF48050009069460948FFF76D
:1022B000D7F808B1FEF731F8049404A9054805944D
:1022C000FFF74EF8002801D0FEF727F806B010BD42
:1022D000002C0140C0000020FEE7FEE77047704779
:1022E000FEF726BD30B58FB028216846FDF7B0FF58
:1022F00014210AA8FDF7ACFF01210804CDE9001064
:102300000024029402250491CDE907504FF4E01017
:1023100009906846FEF780FE08B172B6FEE70F200E
:10232000CDE90A054FF48060CDE90C4002210AA8EE
:102330000E94FEF795FD002801D072B6FEE70FB0AF
:1023400030BD7047F0B502681C4B1D4D1D4E1E4F31
:102350001E4C4FF0804C984209D0A04207D06045F7
:1023600005D0A84203D0B04201D0B84204D122F037
:10237000700E4A6842EA0E02984209D0A04207D085
:10238000604505D0A84203D0B04201D0B84203D185
:1023900022F44075CA682A434D6922F080022A431C
:1023A00002608A68C2620A688262984201D0A042D2
:1023B00001D10969016301214161F0BD002C014097
:1023C0000004004000080040000C004000340140C0
:1023D00010B5846842EA032224F47F440A4322436E
:1023E000826010BD826822F070020A4342F0070149
:1023F0008160704710B5036A046A24F00104046226
:10240000846924F0F00444EA021423F00A020A4327
:102410008461026210BD10B5036A23F010030362E9
:102420008369046A23F4704343EA023224F0A00370
:1024300043EA01118261016210BD00000D490022D2
:102440000B685A620A68136843F001031360096855
:102450004A6A8242FCD3086A41F21112104207D143
:10246000086A9210104203D1086820F00100086049
:1024700070470000C0000020FEE70907090E002891
:1024800004DB00F1E02080F80014704700F00F003A
:1024900000F1E02080F8141D7047000010B50446DC
:1024A00000F0BAF80121204600F0B2F900212046E0
:1024B00000F0ABF92B49204600F097F92AA314222B
:1024C0000021204600F046F90121204600F09DF948
:1024D0002649204600F089F925A308221521204627
:1024E00000F038F90021204600F08FF91D49204600
:1024F00000F07BF91FA31E223321204600F02AF9A9
:102500001DA31E224321204600F024F92F2323225D
:102510000221204600F0C1F82F2324220321204667
:1025200000F0BBF80C2320222D21204600F01AF9E0
:102530000C2321222E21204600F014F90F492046B9
:1025400000F053F90EA336220121204600F002F9D3
:10255000204600F033F9BDE810404FF47A70FDF7E3
:102560007BBF0000D5360008550000004A5900081E
:102570003800000067000000B200000002340008CC
:102580006769746875622E636F6D2F6F6C696B720B
:102590006175732F7538673200000000A6B0FEF732
:1025A000CFFBFFF79FFEFFF7EBFDFFF741FEFFF7C5
:1025B0005FFEFFF71DFE684600F014F8084D4FF46B
:1025C000FA742046FDF748FF20212846FEF752F80E
:1025D000684600F0CDF86846FFF760FFF1E70000BD
:1025E000000C014010B50446084B094A094900F0A7
:1025F0004BF9204600F097FC0021204600F0A3FC98
:102600002046BDE8104000F007B800004133000844
:10261000E92F0008745C000801680A7C90F8381003
:10262000406B5143C900FDF7F1BD2DE9F04104466F
:1026300090F870001F4615460E4630B1012809D0AB
:1026400002280CD0032815D10FE0E16D2046884701
:10265000284408E0E16D20468847301A09E0E16D22
:1026600020468847281A85B204E0E16D2046884755
:10267000304486B22846A4F86460A4F8660039465F
:102680000025204600F0F6FA010003D0204600F0B5
:1026900021FA85B22846BDE8F08138B500240094BF
:1026A00000F002F838BD00003FB581B0044690F854
:1026B0008C00089900283AD0BDF81000002836D0C8
:1026C000012811D9022902D0032907D00CE0BDF856
:1026D0000820101A401CADF8080005E0BDF80C20D9
:1026E000101A401CADF80C0011F0010521D0B4F80F
:1026F0004810BDF80800814219D8B4F84A10814248
:1027000015D9B4F84E30B4F84C2004A90DF10C00E2
:1027100000F052F900280AD00095206BBDF8103067
:10272000BDF80C208568BDF808102046A84705B004
:1027300030BDB4F84C10BDF80C008142F7D8B4F8A5
:102740004E108142F3D9B4F84A30B4F8482004A9B5
:1027500002A8DDE730B4024C446030BC00F059B947
:10276000AD2F000838B501240094FFF79DFF38BD58
:1027700010B5044690F8930010B12046FFF74CFFC7
:102780002046BDE81040002100F021B870B50D468C
:102790001E460446B0F84E10B0F84C00049B00F002
:1027A000C6FA002809D0B4F84A10B4F848003346F5
:1027B0002A46BDE8704000F0BABA70BD10B50446B4
:1027C00000F045FB2046BDE8104000F0B4BB10B55A
:1027D000044680F83910006B016820468847206B5A
:1027E00041682046BDE81040084710B50446806D9A
:1027F000884209D004F17400A16500F0F3FA204684
:10280000BDE8104000F05CB810BD80F87010704753
:1028100080F86D10704700000149C16570470000E5
:10282000892A00080021A0F85010A0F854104FF693
:10283000FF71A0F85210A0F85610016B49680847C4
:1028400070B5044600250498A565E362616384F8C9
:10285000382084F8395084F86D5084F8915084F809
:102860008D50012184F8921084F893102063016840
:10287000204688472046FFF7D5FF2046FFF7CCFFCC
:1028800084F8705070BD00007CB50C460093134670
:102890000546084A084900F05EFB01A800F09CFAD2
:1028A0000146064B00949DF804202846FFF7C8FF18
:1028B0007CBD00001131000839320008492D0008A4
:1028C00010B5816D00291AD090F9813080F88E30D2
:1028D00090F9822080F88F2090F88D1000290ED07A
:1028E00001290DD090F97E4090F980100C449C4253
:1028F00001DD80F88E408A4201DD80F88F1010BD26
:1029000090F983108B4201DA80F88E1090F98410D0
:10291000F1E72BB1012B05D0022B06D0104402E0C9
:10292000084400E0801A80B27047401AFBE72BB1E0
:10293000012B05D0022B06D0401A02E0104400E023
:10294000084480B27047801AFBE738B50446B0F8F7
:1029500056000090B4F85230B4F85420B4F8501037
:102960002046FFF713FF18B3012084F88C00B4F859
:102970004810B4F85000814201D2A4F84800B4F8DD
:102980004A10B4F85200814201D9A4F84A00B4F8C0
:102990004C10B4F85400814201D2A4F84C00B4F8B1
:1029A0004E10B4F85600814201D9A4F84E0038BD4B
:1029B000002084F88C0038BD30B504880D8825448B
:1029C000ADB2AC4205D99C4202D25D1EADB200E070
:1029D00014469C4201D2954201D8002030BD944259
:1029E00000D214469D4200D91D460480281B088051
:1029F000012030BD38B5C58F049C0094521BC46AB9
:102A000092B2A04738BD38B5049C0094FFF7F2FF9E
:102A100038BD2DE9F0471C4691468846064600F031
:102A2000E0FC00254FF6FF7772682178304690472A
:102A30000346B84225D0641CA3F57F40FE38F3D08E
:102A40004A4641463046FFF7F0FD96F8701031B126
:102A5000012907D0022908D003290FD10AE008EB89
:102A6000000104E009EB000106E0A8EB00011FFAF9
:102A700081F803E0A9EB00011FFA81F9284485B22F
:102A8000D2E72846BDE8F0870020704710B50C4615
:102A900000F006F80122641EA240801A40B210BD68
:102AA00030B50568047B2A78E2406318DBB2082B56
:102AB00009D36D1C05602D78C4F10804A5401543A9
:102AC000083BEAB2DBB201248C40641E144003735D
:102AD000204630BD2DE9F843054600F1600400F0C2
:102AE0000CF915F96B6F2046E97BFFF7CFFF8146A4
:102AF000297C2046FFF7CAFF0746697C20466B3DCC
:102B0000FFF7C4FF804694F90A00002857DDF0194A
:102B1000404247B2237CA0883A464946FFF7F9FE77
:102B2000A080237C3A46E0884946FFF700FFE0801A
:102B3000A188277C02460B4637B1012F0AD0022F0D
:102B400040D0032F0FD146E094F90A7030443B4443
:102B50009BB207E0891B491C94F90A705B1C89B27F
:102B60009BB2384480B200902846FFF70FFE30B386
:102B70000020207284F8090095F876102046FFF7AF
:102B80008FFF814695F877102046FFF789FF0746AB
:102B900000224946284600F027F8012239462846F7
:102BA00000F022F801212046FFF77AFF0028EFD13C
:102BB00094F90900B042DFDBA07B85F89200404623
:102BC000BDE8F88394F90A705B1CC91B491C89B2E3
:102BD0009BB2921B04E094F90A7033449BB2D21B5F
:102BE000521C92B2401CBDE72DE9F74F84B00D4650
:102BF000049C94F8687094F869806034A07AC01BD3
:102C0000C6B20196B54200D201954FFA88F279B268
:102C1000A088B4F806B0237C92468946FFF779FE77
:102C20000290237C524649465846FFF780FE0246F2
:102C3000069808B1A17B02E0607B50B9E17B049863
:102C400080F89210207C0090DDE901310498FFF7B4
:102C50002BFDB54207D3A81BC5B208F10100002720
:102C600000F0FF08CAE77819207284F8098007B0DD
:102C7000BDE8F08F70B50D460146806D1730FF2D11
:102C800010D8612D02D3B1F8881003E0412D02D392
:102C9000B1F886100844417819B30278AA42F9D1F4
:102CA000801C70BDB1F88A100C18264600213046F1
:102CB00000F019F804440221304600F014F8361DE3
:102CC000A842F3D34FF6FF72207802EA0021607821
:102CD000084306D0A84201D1E01C70BDA07804448E
:102CE000F2E7002070BD08444FF6FF72017840788B
:102CF00002EA0121084480B2704730B5054600F170
:102D0000600401660020207315F8781F2046FFF745
:102D1000C7FEA07269782046FFF7C2FEE072A87E67
:102D2000A07310B10020E07330BD0120FBE78A42A0
:102D300005D2834201D89A4203D9012070478342C9
:102D4000F9D8002070470000F0B502F00706012412
:102D5000B440002590F892E0E7B2DDF814C02C46AC
:102D6000BEF1010F01D83D4600D03C46076822F075
:102D70000702BCF1000F3F7C07FB02F7BAB2476BBA
:102D80003A44114409D108785B1E284360401B0473
:102D900001F8010B1B0CF6D1F0BD0A78761C2A4312
:102DA0006240A3F101030A7016F007069BB206D039
:102DB0006A06150E6206140E002BEED1F0BD428F8E
:102DC000114490F89220012A03D800BF4FF001056A
:102DD000F2D04FF00104EFE708210170004870477E
:102DE0000801002070B5054608782870487868709A
:102DF0008878A870C878E87008792871487968716F
:102E000088790C46A871E079E871207A2872607A96
:102E10006872A07AA872E07AE872207B2873607BDF
:102E20006873A07BA873E07BE873207C2874112171
:102E30002046FFF758FF688213212046FFF753FF13
:102E4000A88215212046FFF74EFFE88270BD2DE9CC
:102E5000F843064690F8387090F83950006800241E
:102E60004FF6FF7890F81190316830462A460B7C77
:102E7000716B04FB03FC1FFA8CFC08EACC0C614468
:102E80000091002100F040F8641C6D1CE4B2EDB22A
:102E9000BC4201D24D45E7D3BDE8F883F0B590F8C8
:102EA00038204FF6FF75036805EAC2018187197C57
:102EB00005EAC101418790F8394005EAC401C1879C
:102EC0005E7CA718B74201D9321B92B205EAC20252
:102ED00020F8401F11444180998A8180D98AC1809D
:102EE000F0BDFFF7DBBF0021A0F84810B0F8441098
:102EF000A0F84A10B0F84010A0F84C10B0F84210FA
:102F0000A0F84E10FFF721BD1CB58DF805108DF807
:102F10000620049C8DF804300094012284686B46DE
:102F20000F21A0471CBD30B484680023A44630BCE8
:102F30001A460A21604730B484680023A44630BC96
:102F40001A461021604730B484680023A4460A461C
:102F500030BC0B2160472DE9F04115460E46044672
:102F6000069F00F009F86761A660C4E90353204694
:102F7000BDE8F04100F012B8002140F8081B064AF5
:102F8000026042608260C260C17681770161FF2188
:102F9000017780F8201070473D33000830B4846812
:102FA0000023A44630BC1A4609216047080001D01E
:102FB0000A2801D14FF6FF70704730B4046900232E
:102FC000A44630BC1A461921604713B50122046992
:102FD00001AB1721A0471CBD30B404690023A446EF
:102FE00030BC1A461821604738B5184818290DD04A
:102FF00004DC142907D0172923D10AE0192916D097
:1030000020291ED11FE0FFF713F91CE000210170F9
:1030100019E00F4C08E000BF017813F8015B65541C
:10302000491C521E0170D2B2002AF5D10BE04FF4B8
:103030007A7100910378064A78210648FDF774FDFD
:1030400008B1002038BD012038BD00001600002066
:10305000080500206C00002030B4C4680023A4469A
:1030600030BC1A461921604730B4C4680023A44616
:103070000A4630BC1621604730B4C4680023A44619
:103080000A4630BC1521604730B4C4681346A446D4
:103090000A4630BC17216047F8B50C464FEA0005D8
:1030A00014F8011B182924D00EDC152919D0162973
:1030B00017D0172923D120788DF800006A46012106
:1030C0002846FFF7E1FF0AE0192912D0FE2916D1A0
:1030D00022788DF800202921284600F066F9641C2A
:1030E000DEE722788DF80020EE6800232846B047FE
:1030F000F5E70023EE681A462846B047D0E7F8BD4A
:1031000030B4C4680023A44630BC1A461821604776
:103110002DE9F041DFF8B08014460646A1F1140213
:10312000002798F800001D46062A4AD2DFE802F080
:103130002F03161B3E4310B13046FFF73EFF3046CB
:10314000FFF74AFF00213046FFF73FFF2146304698
:10315000FFF73BFF012088F8000029E021463046B8
:10316000FFF733FF24E050B13046FFF726FF06E0BB
:103170001821304600F01FF9183CE4B21835182C1D
:103180002A46F5D82146304600F015F90EE096F8AB
:103190002400FF2802D1782086F8240037692B46C6
:1031A00022463046BC46BDE8F041604788F80070D2
:1031B0000120BDE8F0810028F8D03046FFF7FDFE81
:1031C000F4E70020F5E700001000002070B50023B0
:1031D000456904461A462821A8470023E5681A468F
:1031E00014212046A84701224B21204600F0DDF89B
:1031F000206829210279204600F0D7F800224B21CF
:10320000204600F0D2F8206829210279204600F0FB
:10321000CCF801224B21204600F0C7F82068292174
:1032200042792046BDE8704000F0BFB80160897C5B
:1032300080F822107047000070B50C46054600F07B
:1032400019F888B9092C0BD00A2C01D0002070BDC8
:103250002846FFF7BBFF05492846FFF71DFF03E09F
:1032600003492846FFF7E2FF012070BDA65C000875
:10327000A85D00082DE9F0411E46144605460B29BD
:1032800008D00D290ED00E291ED00F2927D00020DE
:10329000BDE8F0811AB12849FFF7FEFE4AE0264951
:1032A000491FF9E74AB124490C31FFF7F5FE2868B8
:1032B00090F8130085F822003CE01F49491DFFF7F4
:1032C000EBFE2868807CF5E7FFF71AFF812128468E
:1032D000FFF7D2FE21462846FFF7C6FE27E0FFF79C
:1032E0000FFF707995F8221001EBC000C7B24021A2
:1032F0002846FFF7C1FE102040EA17112846FFF7C5
:10330000BBFE07F00F012846FFF7AEFEB07940F094
:10331000B0012846FFF7A8FE30793268C006010EDA
:103320002846FFF7B1FE641E14F0FF04F4D12846CE
:10333000FFF792FE0120ABE7855C00080020704794
:1033400010B54D2919D00CDC2B2918D004DC292903
:1033500020D02A290ED114E02D291FD04C2909D1C3
:103360000BE0002250291DD051291BD0522919D021
:10337000532917D0012180F82710012010BD00BF6C
:10338000FBE700204FF4A07100BF401C80B28842D0
:10339000FAD3F2E70120FDF75FF8EEE70520FFF72B
:1033A0004DF8EAE780F82720E7E730B444690023C6
:1033B000A44630BC60472DE9F04115460E46044650
:1033C000FFF70AFE40212046FFF7FFFD27692B4645
:1033D000324617212046B8472046BDE8F041FFF7A6
:1033E000ECBD002180F826107047000000000000AE
:1033F00000000102030406070809000000000102A2
:1034000003045F0002020303020404040600FF0534
:10341000FF05FF00E901D302B6200580CD0021069B
:10342000E9C8AC00220693CB2415230AACC8A43407
:10343000541A2A012409B3C7A5A1474A002508AB9D
:10344000C864D446012609ACC8C514AB9802270548
:10345000D1CB082807F2C7A966002908B2C7C4540F
:1034600029002A07ABC8A46A352B08ABC8C5B462CB
:10347000022C0692C729002D058BCA0C2E05C9C83F
:10348000042F07ABC85665043008ABC85543550038
:103490003107ABC825590D3207ABC835531A33086D
:1034A000ABC8CC9417003408ABC82435620135088A
:1034B000ABC88CA817003607ABC84DD5023708AB90
:1034C000C8CC5446003807ABC8ADD6023907ABC8E4
:1034D000B5E4023A06E1C8C4003B07AAC765A800E4
:1034E0003C07ABC8A6BA003D069BC9EC013E07AB42
:1034F000C8E4AA043F08ABC8E89461024006ABC820
:103500002D5B4108ABC85543A9004208ABC8A8B41D
:10351000D2024308ABC8553255004408ABC8A86472
:103520002D004508ABC88CA8E2004608ABC88CA8A3
:1035300062044708ABC8CDA492004808ABC8243544
:10354000940A4907ABC8AC580D4A07ABC896AA0203
:103550004B08ABC824B5920A4C07ABC8C4E6004D73
:1035600008ABC8A431940A4E08ABC8AAA124004FE6
:1035700007ABC85556055008ABC8A8B4620451073C
:10358000B3C755561D5208ABC8A8B4920A5307AB2F
:10359000C8EDBC005407ABC8ACD8025507ABC82473
:1035A000D7085608ABC8246BA4045708ABC8243509
:1035B000860A5808ABC824D552015908ABC824550F
:1035C00056005A07ABC8CC540E5B06EAC8AC4A5C3E
:1035D00007ABC8C45C065D06AAC8A86A5E0593CBA3
:1035E000355F058BC70C6006D2CBC4006107A3C84A
:1035F0002D95046208ABC84495D4026306A3C8CDD8
:103600002C6408ABC8A6A592006506A3C8555366EE
:1036100008ABC8A6B462026708ABC7AD2417006840
:1036200008ABC84495AC006908ABC86524D3006AF0
:1036300008B3C766582E006B08ABC8C4B4920A6CB6
:1036400007ABC8C8D6006D08A3C8A4A154006E0774
:10365000A3C8A864056F07A3C855AA027008ABC722
:10366000A8B462047108ABC72D9564007208A3C8A2
:10367000A41523007307A3C88DBC007408ABC8A5AC
:103680001573007507A3C8242B097607A3C824ABBC
:10369000027708A3C8243554007807A3C8A43215BC
:1036A0007908ABC72495E4027A07A3C8CC94067BBB
:1036B00008B3C7A624EB007C06E9C80C017D09B35A
:1036C000C7E4A8628A007E0794CB2595000000001D
:1036D00004FFFF0000BF02050405060104061526CD
:1036E00000F918FA19F904E10AAE2258200BD51C8A
:1036F000F587FFFF7F17002119D51CF58753231687
:10370000588BF417879CFB0011689E0D920F2F00B9
:103710002224D51CF58743A288450651641045062E
:10372000516410450651641045065164104506F970
:10373000F0FF13002343D51CF587EB838C35065926
:103740006390350659638C45C6380F8CF1C0181745
:103750001A83AC31C81A83AC31C62263A007C4787F
:10376000608C07C61964AC31C81A83AC31061B6380
:103770002C32C622637C78243BD51CF5875B24124F
:10378000689A520C91900C11448843041101114124
:10379000560984654D6B892546425944904504314C
:1037A000811041CA182490F240302EAD5622F561A6
:1037B00014002541D51CF587DBE410720A29881016
:1037C000A204294490500A112410E3100A049D40D9
:1037D00016110412582015956AA81D344821810C31
:1037E000524820831022C820848C4448398598F29E
:1037F000E136002641D51CF587EBC621A6541144BD
:10380000114212212411421221631141186AC799F1
:10381000861A0984884206114590420219A4204262
:10382000CC21E494428C3145A4F280286990634A0B
:10383000F8701B002710D51CF5875B4292487F1F4C
:10384000FE7F06002823D51CF5877B2396675C79CD
:103850003548450A92487F9244124B24B18A241A73
:10386000686289448A02002925D51CF587BD210B91
:10387000B46215492C9148122949227D90440A12BC
:103880005820058BB35E8143860F0E002A29D51C74
:10389000F5879F2591B6C6204398128628E40161DA
:1038A000DC2AD038C488208A0C920A218898A1C2C8
:1038B000111F7E14002B18D51CF5875F2091BEF5D3
:1038C00080200F08F2805024D2F7E177012C15D523
:1038D0001CF587FFFF9D110B34CFC012499C228934
:1038E00063012D0ED51CF587FFCD67BE0FFF970036
:1038F0002E11D51CF587FFFF2281E659907CB80573
:10390000002F29D51CF58783818E484112491C91CF
:10391000C41129482281241248228124124822817C
:103920002412482281448E0FDB003043D51CF587DA
:10393000FBC5A5B592092591420E31C510530C293E
:10394000A610630A29231042C8108490310621640E
:103950008C41081183506114428E21A518628A217E
:10396000A618724821C80493D64AAE7C783116D581
:103970001CF58717C8330D2DC548202C1012E9FF00
:10398000BF0F0F3221D51CF587F3C625C55211E6AE
:103990001043904024D2208904D25E05E92249C117
:1039A000FC3E9C063328D51CF587F3C525C552116E
:1039B000260953220D9276186AA8A558451A0A8836
:1039C0009C61C831C220A654331F5E00342FD51C21
:1039D000F587474624B07AC65D6D04C248206C085E
:1039E000B2C6206B0CA206218910924621E88150B4
:1039F0001E08E581E048A4F7E13A003525D51CF51D
:103A000087D3EE788744BAB8144B0D9152CE384420
:103A1000924867C621861C624E38A7A5D5CC870779
:103A20003635D51CF587FBC5A5B59209059522123B
:103A3000892352C1A8861A32A39C52C8A10C39C44A
:103A400090430C39C4904319724821A98892D64AF0
:103A5000AE7C7801003721D51CF587D3EE78714410
:103A60001247A4E288248E48C511A938220549A42A
:103A70002089E4C323003839D51CF587F3A629C56E
:103A800052110591520E31E410430E31041142528D
:103A90001164298618094511421031141A862052E2
:103AA00008228520528A21C708839852CD7C783914
:103AB00035D51CF587F3C5A5B592092591420E3180
:103AC000E450861C62C821861C624A29A70C731C1C
:103AD0006ACA0412A9382249A2905482416CA56690
:103AE0003E3C01003A16D51CF587FF1A81E6599035
:103AF0007C788940F32C483EDC023B1CD51CF587C2
:103B0000FF1A81E659907C7869C402CD33B0441223
:103B1000A748E29881013C1BD51CF5879F0A72C01B
:103B2000E20EBBE70A34F08206DE6089648A0F0F7A
:103B3000023D1BD51CF587BFFD80200F08F280F8E1
:103B400030F880200F08F280F8F02F023E19D51CC3
:103B5000F5872F073A6481E8E17B5633EDB03B6788
:103B60001E89E2C3073F25D51CF58753A529C590BB
:103B700011E6104390400405442205092CAF8254FD
:103B8000A43E240934CF82E4C3034043D51CF58707
:103B9000FBA629C59011E55085A4518641641035D6
:103BA0000659630C23C818A210328620858C214840
:103BB00021630842CA18A304338860648C45C8286E
:103BC0008110224B3C8224A6163B1FAE034138D500
:103BD0001CF58717C21C728A051668DC08C38D3075
:103BE0001A09848D31D818449141D4284331D49096
:103BF0003BE310430E31231142122144913116113F
:103C000064910F9701423AD51CF587CB4B35E40EF2
:103C100021C790530A41A410440A41A490430C21A7
:103C2000C7B8D3D033E4944210292411421221247E
:103C300011421221049142CA29CFB8C33E9C0743C6
:103C40002AD51CF587FBA6A9D4CE11C614434A4138
:103C50008490240C8124D24F92486241E21443CCD8
:103C600011E634A59AF9701E00443ED51CF587CBA9
:103C70004B35E40E21C710530C39A510440A41A45A
:103C800090440849849044084984904408498490A9
:103C9000440849A310440A41A490430C31C5106262
:103CA0004E432CA90F2F004522D51CF587CB0F843E
:103CB000F240280F8442227DD11DEF9048BFF8408A
:103CC000280F84F240F8701A004616D51CF587D3E9
:103CD000CF7C8644FA62431D2291FEFBF00C004724
:103CE00032D51CF587FBC525D58E19E55085A06119
:103CF000480A67447A05115210210511920821895A
:103D0000148248218818728839C21C97143B1FCE30
:103D1000034846D51CF587CB0491421029049142F3
:103D20001029049142102904914210290491421053
:103D3000290F84F240280F8442102904914210294F
:103D4000049142102904914210290491421029043F
:103D5000914210F9701A004913D51CF587D30D75DF
:103D60008D44FAFFC71AEA3E1C074A1CD51CF5878A
:103D7000EB2C718D44FAFF5430240D52501145AD97
:103D8000955CF9F006004B40D51CF587C30415423D
:103D90001029E410431D5208228424328822A228CC
:103DA00012CA4A0CB5C41223822C328822A32442A0
:103DB0004822852052CA21A618728821A714820A97
:103DC00021897C380D004C11D51CF587CB24D2FFFE
:103DD000FFC567BE0FB7014D4ED51CF587C3630DF8
:103DE0004212212411524E21E514628A21A6187232
:103DF000C621671C42C2140821610A8410510421A3
:103E00004414410819631042C6188410120895081A
:103E10002189109208218910920821891092082185
:103E2000897C380D004E4DD51CF587CB049142108E
:103E300029E590520E29C690720A29A79082082976
:103E4000240C420A09649042C418A4104115328619
:103E500020850C124821640452084185945388310E
:103E6000851853C829859C520822852052481A1F5C
:103E70004E034F3BD51CF587F3A629C59011E610DC
:103E800043215208228428328822832832882283C0
:103E9000283288228328328822832842861A852065
:103EA000520822863A4618C4946AE6C3035029D5BC
:103EB0001CF587CB2C35E40E29C690530A41A4107B
:103EC000440A41A410440A39A59062CC33EEB044B0
:103ED00022FDFBF00E005143D51CF587F3A629C542
:103EE0009011E610530A41A41044CA5064104506CC
:103EF0005164104506516410450651641045065141
:103F00006410450841A410440C3115298829D50EA8
:103F10001C92C4D4903B1F3800523ED51CF587CB71
:103F20002C35E40E21C790530A41A410440A41A441
:103F300010440A39C490628C3B0DB1440849849006
:103F4000440A41A410440C39C414430E31E4944291
:103F5000102904950F97015330D51CF587FBA6A9AE
:103F6000D49011C614330E41E29048248906A287EA
:103F7000DE8127124922314191221429039172C412
:103F8000310E31763E9C075416D51CF587C30F08B9
:103F9000F280200F884522FDFFDF8717005542D5AC
:103FA0001CF587CB24114212212411421221241125
:103FB00042122124114212212411421221241142C1
:103FC00012212411421221241142122124114212E1
:103FD000210495420E316698D3D262E7C379005628
:103FE0003BD51CF587C34491411419448D421029D7
:103FF000041133D038E48C430C41C38C44CA488448
:104000001035C858648C450461438C46C268C89911
:10401000674112891C527C7802005752D51CF587E3
:10402000BB848D31D818A38832C628838C41C8340C
:10403000283206354619A38851C6286294218C1867
:104040008504234621615648106284618C18411C06
:1040500023CC31A39C42CA29A49C420A1A66A461BB
:10406000461A66A4614612487C380E005839D51CA1
:10407000F587C32491421031D4216624424822643A
:104080002C22C8228134E4CC3390C0028D430D3100
:1040900022C822822842482284206228440A41847D
:1040A00010453E5C065929D51CF587C34491411241
:1040B000290491420E65C8218524424822642C229D
:1040C000C8226234D4CE33AF44FAEFC30B005A2E69
:1040D000D51CF587CB0F84F240280F044822815469
:1040E0002490C411092491402A1248E2880492388D
:1040F00058200F08F280200F880F97015B14D51C01
:10410000F5873B2C718944FAFFFF224BDC870A00BC
:104110005C2BD51CF587BD11892491481289249107
:10412000481289249148128924914812891C92C806
:10413000214924924422870C1F0E015D12D51CF5E3
:10414000872B0D7591FEFF7FA8F72103005E20D518
:104150001CF5871784249140E3501B813022C81A34
:10416000642842082266A870C287FF87015F13D5C2
:104170001CF587FFFF671F18E381311E181F1A0007
:10418000601AD51CF5873B818A29E690249258C194
:1041900012899CE690E2C3FF4100612AD51CF58795
:1041A0007FE1B0951A2AC2A48048A4123BCE3C53AA
:1041B0000C290491424E29C498620432EFB8540687
:1041C000F9701A006233D51CF5872324D24F14D519
:1041D000903B4718530C754A218814824821881453
:1041E00082482188148248218798628831C31877D1
:1041F0004648688CF2E1016321D51CF5877FC23403
:10420000A51832C2986228240C89F42489E5087420
:1042100044412DA9663E9C076435D51CF58783244F
:10422000D2A78A20A81D678C38869852082285203C
:1042300052082285205208228520520822A51C629D
:104240008829C688731C6AAA08F2E13400652CD557
:104250001CF5877FC134A5582AC21C62C81988146E
:104260008248792094074279201412492C91A09019
:104270008C30A7A5D5CC87F300661CD51CF58763C9
:10428000A629C552110511231289546BA86324D2A3
:10429000FFFBF006006736D51CF587BF5FC838AF57
:1042A0003C100A21E510331031E410430E290515A6
:1042B0005112534AA54562810EB9F30A41849044D4
:1042C0000849849C61CC3B6CA10E006836D51CF576
:1042D000872B24D26F94440242EEA0508E29C4143E
:1042E000431D62C821861C62C821861C62C82186C3
:1042F0001C62C821861C62C821861C62C8211F4E10
:10430000036919D51CF587534312582289E3838C1E
:104310001A16E9FF1A4BDC87E3006A1FD51CF587E4
:1043200073231658C5F181554B8BF4FF53C190246C
:104330004A414594B45672E6036B35D51CF5872384
:1043400024D2EF94424C31A49443484164944404F1
:1043500059241096B112C8228328324A22A420522E
:10436000CA21861C628A21A71482CA87CB006C12DC
:10437000D51CF5872B896591FEFFC7DCF13EDC0675
:104380006D1DD51CF5873F4D0219A43C20C8036361
:1043900094604219F4FFFFFFFFDF87CB006E35D535
:1043A0001CF587BF4D46492420E40E0AE598424C8F
:1043B00031D421861C62C821861C62C821861C62F9
:1043C000C821861C62C821861C62C821861CF2E1B5
:1043D00036006F30D51CF5877FC1B4B41832C19C4C
:1043E000528A2187149208218910920821891092FB
:1043F00008218914728829861C134C622AB9F2E1BB
:1044000005007034D51CF587BF4D44510DB9738438
:1044100031C550A71482482188148248218814820B
:10442000482188147288298698238C71A721228AB2
:104430002291DE0705007132D51CF587BF5F04416C
:10444000ED3863C431C49442102904914210290408
:10445000914210290491421031E410434C31469CA2
:10446000E350534590485F06721CD51CF587BF4E3C
:10447000464924A4F34C0AE418234E81059248FFD0
:104480007D7805007328D51CF5877FE1B095DA317A
:10449000E21872C62128A012CF530E41138B118946
:1044A00098814839C21C87D8421FCE03741DD51C81
:1044B000F58757492471C8A9B9E32D12E9BF2294A1
:1044C0000964AD959AF9701C007535D51CF587BF48
:1044D0004D0E31E410430E31E410430E31E410432D
:1044E0000E31E410430E31E410430E31E410430E5C
:1044F00031A59463C2390E355504F9701B0076302E
:10450000D51CF5873F5DD228248D421031038D43A1
:10451000CE38C41044CA48A40C35C858648C45042D
:1045200061248C869C79E69548E2F8F00400774394
:10453000D51CF587BF4C16196391318A20640C4253
:10454000066D0C420619A38C51C428431831CA10B9
:10455000468C428208438C428210230C6384394685
:10456000985386398594534841849034CCF8701C14
:1045700000782FD51CF587BF4D1029C590430A49F7
:1045800084104504592490769E790516681C62446F
:10459000104506518410440C315521887C380D009B
:1045A0007939D51CF587BF4D12210491421031E4B1
:1045B0001043CE40C31044CA508310450651640CCA
:1045C000460261240C37C270E715582089D40A844A
:1045D000AC21CA4A0CBDF2C1007A1DD51CF5873F3B
:1045E000FECC07E9607915A4C1F2CA7B209407428A
:1045F00079207C380D007B21D51CF587270E4B4B8D
:1046000029F348A40F12775C812616392489F48B8C
:10461000059EA7586A28037C0ED51CF5875324D223
:10462000FFFFFFE7017D1FD51CF587D3C725A660D7
:104630009124D227493CCF72E591487FB038B3D45A
:104640004A0C7D007E17D51CF5877FF31451562840
:10465000E301510641AE7CF87F0200A00BD51CF5AA
:1046600087FFFF7F1700A118D51CF58753049A67B1
:1046700083E40334E414E91FAC17C7872700A24082
:10468000D51CF58737482471C8018B4BAA9D129021
:1046900029828461C818231842C6088690A1081987
:1046A0008A90A1C8208A0CA2C8188C8841C22961AE
:1046B0000C815028A8A5C58E1B72F6610100A32BA2
:1046C000D51CF587FBC5A5B592092495121489144C
:1046D0004C2C73449248174724F098605618E50113
:1046E000418A5025A0F2E13800A429D51CF5878F16
:1046F0008B24CE3B2DAD540649E30C34CE40E30C65
:10470000440A492594D4CE334314314E50E2C3BFFA
:104710000900A52FD51CF587C344114210290411A7
:10472000431D624622842442C6228230124643CE72
:104730003C030973C7632412E68EC748A43EBC003D
:1047400000A611D51CF5875324D2FFF7012791FE4F
:104750009F07A73AD51CF5874BA629C55211E6102D
:10476000331031229158A281A82935C4418498433D
:104770000C39C4906308414CA986A0892512240EE7
:1047800039C3147344414DA9663EE401A818D51CF1
:10479000F587C541862AA2A4224A2AA2A841C68733
:1047A000FFFF1500A948D51CF5875F284E298648CC
:1047B0002986041308210105324650618811081921
:1047C00061881146196284498D30A9112635C208C5
:1047D000848831C2105418630415C618020542C6F5
:1047E00020829462C8694A35F3E13C00AA25D51CB1
:1047F000F587F3C621A698208385421A5A4AAD440C
:104800000849A3904446494C2D96BA3BDE87BF0E1B
:1048100000AB2ED51CF587FF5A30810D3254112480
:10482000154112192491411219441551541145157D
:10483000515411451541D6208305133E7C0800AC28
:1048400010D51CF587FF4BEE7891DE873F0400AD55
:104850000ED51CF587FFCD67BE0FFF9700AE47D57D
:104860001CF5875F284E298648294609424648811B
:104870000C21C61862464618621A448C30441A232A
:104880000C91C608432032C2101319818431861856
:104890006384318618E390430822C50C739A52CD85
:1048A0007C380F00AF0ED51CF587E34B6D1FFEFF64
:1048B0004700B01CD51CF587F3A625A65411251179
:1048C0004212212415519462C8950FFF1F04B12094
:1048D000D51CF5876F91486F3D20C803823C20149A
:1048E00089F4FBC03E20C803823C203E5C06B21E19
:1048F000D51CF5874BC5A5B51419448D32E4880441
:1049000092573D02096489FBF0BF0A00B321D51C10
:10491000F5874BC5A5B5D620430E779C794712394C
:104920009430231142D25AC9950FFFCB00B414D54D
:104930001CF58789304924B0402A8E293EFCFFEBC4
:1049400000B53BD51CF5873F4D0E31E410430E31C9
:10495000E410430E31E410430E31E410430E31E411
:1049600010430E31E410430E31A51421C4094B3C11
:1049700040C4124650641012E97D6000B64CD51C4C
:10498000F5874B0BB5E38C12A32C31CA12A32C3143
:10499000CA12A32C318C12C328314E120321319438
:1049A000118311311811831131181183113118112C
:1049B00083113118118311311811831131181183AA
:1049C00011311811E3431900B711D51CF587FF0DFC
:1049D00002CDB320F9F0BF0C00B813D51CF587FF4A
:1049E000FFF7C524B1B031064BAE2000B913D51C7A
:1049F000F5875B031677B930869CFF3EFC2F03BA20
:104A00002AD51CF587FBC521A6D620241142D23019
:104A1000230D33D230230D33D2282411429462E87F
:104A2000910F843BDE87BF0E00BB2ED51CF587FFA0
:104A30005230810D321611651151161964914116CB
:104A40001924155150110515515011251151D4201B
:104A50008305133E7C0C00BC4ED51CF587BD81C27E
:104A6000296810830609629C81C619681882861914
:104A700069149246196A10A206196B0C1247247128
:104A80004412472464A841482284A4414A1A43841A
:104A900081C61861A021A643823243A842D040219A
:104AA0000D393EA401BD4DD51CF587BD81C22968D5
:104AB00010730809629C818621689891861969940F
:104AC000A146196A10A206196B0C124724714412F0
:104AD0004724A2A8214E1A6108728610649C818620
:104AE00019689CE99042D028049132942889A50F36
:104AF0006100BE4FD51CF587B9F25019458C51861F
:104B00001A841C43C831832C228809658871C4200B
:104B10008198240642812832462471441247247128
:104B200090A108196A1092C828690C83C81061A066
:104B3000318418680855C65065A081041A727C48F3
:104B400003BF28D51CF5874B049A6741F2012791D2
:104B50008204965741020B2491420111241031E442
:104B600098701053AA950F2F00C03ED51C3517B270
:104B70003C04CB141F9C30879C6281051A37C2709D
:104B8000238C460261630C360651641035CA500C02
:104B900035E4CE38C49043CC488490440851648CAA
:104BA000450459E4C36500C13FD51CF5074140D316
:104BB0005033507CB0C21C728A051668DC08C38D65
:104BC000301A09848D31D818449141D4284331D406
:104BD000903BE310430E31231142122144913116D0
:104BE0001164910F9701C243D51C750A7344D3D247
:104BF0002AA12832C80A46C030879C6281051A372C
:104C0000C270238C460261630C360651641035CAAB
:104C1000500C35E4CE38C49043CC488490440851BD
:104C2000648C450459E4C36500C342D51CB5210F0B
:104C30008971DC2101A940CA073ACC21A7586081BB
:104C4000C68D30DC08A39140D818838D41141944D7
:104C50008D3214430DB9330E31E410331221241177
:104C600042141963114116F9701900C43FD51C751F
:104C70001E64A8224A2AA2A4228A1A647C50C494E0
:104C8000248924966739D486186D08B288206B90E1
:104C9000B1062189A586DA21861CCA0C440A49A3DB
:104CA0000C4506516490453E5C06C543D51C351A3B
:104CB000B1BC218413433831841B61BC12879CC56D
:104CC000020B346E84E146186E04C2C6186C0CA246
:104CD000C8206A94A1186AC89D71882187188248E3
:104CE000198910A206218A8CB1C887CB00C639D594
:104CF0001CF587F32C31D4D071A7A136026923109B
:104D00004602614310364432442433463263104530
:104D100006515B62891092462188148248516218BC
:104D20002586511F2E03C731D51CF587FBC525D518
:104D3000CE11C614434A418490240C8124D24F9250
:104D4000486241E21443CC11E634A59A8962925834
:104D5000D8188325573A00C826D51CB521D1C003E1
:104D6000090DFF81501E08E5815048A42FBAE31DAC
:104D700012E9171F08E581501E081F1E04C926D519
:104D80001CB522EF30E4C807F781501E08E58150BA
:104D900048A42FBAE31D12E9171F08E581501E0829
:104DA0001F1E04CA2DD51CB50A9240E3D02A82AC3E
:104DB00041C60A27A4074279209407422191BEE800
:104DC0008E7748A45F7C2094074279207C380D00C0
:104DD000CB2DD51C751E65A4320A2AA3A0324A1A0F
:104DE00065F4074279209407422191BEE88E774806
:104DF000A45F7C2094074279207C380D00CC1BD521
:104E00001CF5099344034F1C347C101AEA1A89F4E8
:104E1000FF8F35D47D380E00CD18D51CF51AEFB4B0
:104E2000E3C807B8A1AE9148FFFF5843DD872701CB
:104E3000CE1ED51C75129240D3D22A822842C60AB1
:104E400027A886BA4622FDFF630D751F8E03CF1E6D
:104E5000D51C751E65A4320A2AA3A0324A1A65F829
:104E600086BA4622FDFF630D751F8E03D03BD51C0D
:104E7000F587D36AB1D41019E790520E31C590432B
:104E80000C39C410440A4164A442462A64A4422155
:104E900052082285A061C821861C62A8434A396451
:104EA00018D4D052EAC303D157D51CB521F088815C
:104EB0001A22E1A840CA079320520822A51C52CA10
:104EC00021C518524E21E5145210218584414821F4
:104ED000810C528818831422A842C610A490410263
:104EE00029848C400A21A890720A31A610630A39DD
:104EF000A590530A41A410440A49E3C36900D24172
:104F0000D51C3517B2C003CB141F14D39462C80844
:104F10007388A110290411421419449141141944B1
:104F20009141141944914114194491411421438D24
:104F30004210290411431D230C624A35F3E101D3C9
:104F400042D51CF50761C0E28E2B507C904C538AF1
:104F50002123CC218642A4104408516410450651F7
:104F6000641045065164104506516410450651848D
:104F70000C350A41A410440C758C308829D5CC8797
:104F800007D444D51C75129240E3922AA2A841C6C8
:104F900014CD34A51832C21C6228440A418410453D
:104FA00006516410450651641045065164104506CB
:104FB00051641045C850A310440A41C450C7088327
:104FC0009852CD7C78D544D51CB52924A414C6713B
:104FD000688803C907D834A51832C21C6228440A5D
:104FE0004184104506516410450651641045065130
:104FF0006410450651641045C850A310440A41C4CA
:1050000050C708839852CD7C78D647D51C75196453
:10501000A8224A2AA2A4228A1A647C804D538A219B
:1050200023CC218642A410440851641045065164E3
:105030001045065164104506516410450651840C14
:10504000350A41A410440C758C308829D5CC8707CB
:10505000D729D51CF587DF0C731C81882188909295
:1050600088282BB5F3CA330EB112882AA2A0420AAF
:105070001A86A480C487BF0400D84DD51CF587F1DB
:1050800030493262A076DA31C21C6228630A318666
:105090001033C220C408410629439041C81814198E
:1050A000831A839041C6206410310A19448C420649
:1050B00009C38C720A29C610530A394698D3212293
:1050C0004A22537C1807D948D51CF5097444034F6C
:1050D0001C347C92082189109208218910920821A1
:1050E000891092082189109208218910920821893B
:1050F00010920821891092082189109208218910A4
:10510000824A21871833CC6969B1F3E13C00DA485F
:10511000D51CF51AEFB4E3880C1F109208218910F2
:1051200092082189109208218910920821891092F1
:10513000082189109208218910920821891092086B
:105140002189109208218910824A21871833CC695D
:1051500069B1F3E15100DB4CD51C751AB1BCD39297
:105160002AA2A851C60C88244248228424424822FC
:1051700084244248228424424822842442482284AF
:1051800024424822842442482284244248228424FF
:1051900042482284A052C821C60C735A5AEC7C386B
:1051A0000F00DC4DD51C75995219059551501925E4
:1051B0008D323E90241142122124114212212411D9
:1051C000421221241142122124114212212411429F
:1051D00012212411421221241142122124114212BF
:1051E000210495420E316698D3D262E7C37900DD7F
:1051F00030D51C350B923CD3CE23317C40882283A2
:1052000024520822851CCA90430A49849044C858F5
:10521000449045C468A89D675E89F4DF871700DE67
:1052200029D51CF587CB24D2C586DC7986986208FF
:105230002285205208228520520822851C629E71F8
:10524000A72112E97D780700DF46D51CF5874BC5FD
:10525000A5B592110591520C39C490430C39C41074
:10526000530C29E5107110110711910C31A610444F
:105270000A41859044084984904408498410440AAE
:1052800011429842823224A44384F9701E00E03413
:10529000D51CF5877E9823964824894412193E3000
:1052A00087ADD450112605442295D871E6996248FD
:1052B000218814724A21C614239079C7A532C88761
:1052C000D300E133D51CF5870931472CAF402A9232
:1052D000193E3887ADD450112605442295D871E681
:1052E000996248218814724A21C614239079C7A56F
:1052F00032C887D300E239D51CF5870521472CEF4A
:10530000B8110823812C32080B457C300E5BA9A113
:10531000224C0A88442AB1E3CC33C590421029E4D8
:1053200094428C294620F38E4B65900FA701E334FD
:10533000D51CF587C9F29018C7A1218E0AA47CA8B4
:105340001DB6524345981410895462C799678A2143
:10535000852052C8298518538C40E61D97CA201F06
:105360004E03E437D51CF5873BA38C5446416514A6
:10537000544649A38C0FEE614A3554844901914843
:1053800025769C79A618520822859C528831C5083A
:1053900064DE71A90CF2E13400E537D51CF587FE17
:1053A00080E609319C18C209319C89E3837DD84A83
:1053B0000D156152402452891D679E29861482482A
:1053C00021A714624C310299775C2A837C380D0046
:1053D000E63CD51CF5873F4F08392898F2802024F9
:1053E000A0304A28840C45C850848CF240200F8895
:1053F000F1C01065904408498490444821611471BB
:10540000C4180F0C72C431A5900FA701E72AD51C50
:10541000F5877FC234A5DA31E294728621481812EA
:10542000E94912CB11E888825A5AEC4031492C4D97
:1054300010C192331C00E836D51CF5877E98239660
:105440004824894412193E30A629C55211E610435A
:10545000CE40A41044CA03A13C10CA03A1904862E4
:105460008904856484392DAD663E9C07E935D51CD9
:10547000F5878940472CAF402A12293E38A629C516
:105480005211E61043CE40A41044CA03A13C10CAF6
:1054900003A19048628904856484392DAD663E9CE1
:1054A00007EA3AD51CF587BE982396771A6A439087
:1054B00045065982880F88694AB1548439C49033AB
:1054C00010290491F240280F84F240282492582297
:1054D000412119614E4BAB990FE701EB38D51CF513
:1054E000873BA38C5446416514544649A38C0FAEA8
:1054F000694AB1544639E44C6914924679209407BC
:10550000427920141289249120818C30A729D5CC8E
:1055100087F300EC1CD51CF587908824569148121F
:10552000C70C1F14D4B048FFD758E23E3C0900ED29
:105530001BD51CF58798902412486081248E0F3269
:105540006A58A4FF6B2C711F9E04EE20D51CF587B2
:105550007E984312681C622410360661A1880F02EF
:105560006A58A4FF6B2C711F8E03EF1FD51CF587A3
:105570003B830C5544494594544451838C0F2A6A0B
:1055800058A4FF6B2C711F8E03F039D51CF587C909
:10559000010F094CB184D6526B0C22094B8AA176BB
:1055A0008C30A62AE4144212212411421221241123
:1055B0004212212491420E31C5906382494CA96662
:1055C0003E3CF140D51CF587C5F2CE10A821125003
:1055D0000AA57C289151120908B9834239A61053B3
:1055E0000C7588218718728821871872882187187E
:1055F00072882187187288218718728821877CB861
:105600000D00F239D51CF587BC90235691481289BC
:105610000C1F1CD3D262C804734A29861C5248222C
:1056200084244248228424424822842452C821A649
:1056300018724C3089A9E4CA871700F339D51CF5D4
:10564000870531472C90820592193E40A6A5C5904A
:1056500009E694520C39A4904408498490440849BE
:105660008490440849A490434C31E498601253C993
:10567000950F2F00F43FD51CF587BE90239677DC5D
:105680000884914016198485223E20A6A5C590095C
:10569000E694520C39A49044084984904408498403
:1056A00090440849A490434C31E498601253C99542
:1056B0000F2F00F539D51CF587C5F29010C89D3124
:1056C000CE2B1F72A6A5C59009E694520C39A49062
:1056D00044084984904408498490440849A490436C
:1056E0004C31E498601253C9950F2F00F63DD51C3C
:1056F000F58733A38C5446416514544649A38C0F57
:10570000B0696931648239A514430E29241142120B
:105710002124114212212411421229E410530C3980
:105720002698C45472E5C30B00F71AD51CF5871FE1
:1057300016924422C507F799EF434E481289141F69
:105740007E1700F83FD51CF587DF1693ACA4566290
:10575000C80473CA38869011462164084208198229
:105760001032C620840832082162102A1042CA086A
:1057700083106348392698C4D052239445A4F83046
:105780000E00F93FD51CF5879288251249229144D5
:105790008A193E10E410430E31E410430E31E41038
:1057A000430E31E410430E31E410430E31E4104354
:1057B0000E31E410534A39269CE3505345900F2F85
:1057C00002FA3CD51CF587969804164893E3834B60
:1057D0000E31E410430E31E410430E31E410430E59
:1057E00031E410430E31E410430E31E410430E3126
:1057F000A59463C2390E355504F9F02200FB43D558
:105800001CF587BE90041668DC08841131D8188412
:1058100085123E39C490430C39C490430C39C4906E
:10582000430C39C490430C39C490430C39C49043A1
:105830000C39C494528E09E738D45411E4C36D0076
:10584000FC42D51CF58733A38C544641651454465D
:1058500049A38C0F2639C490430C39C490430C39AA
:10586000C490430C39C490430C39C490430C39C4E0
:1058700090430C39C494528E09E738D45411E4C3D0
:105880006D00FD43D51CF587989024124860812453
:105890008E0F2E498410440A41C490430C39030DE5
:1058A000431029430D421419449131180984913051
:1058B000DC08C39D57608124522B10B286282B31FF
:1058C000F4CA071800FE35D51CF5872324D24F14DF
:1058D000D5903B4718530C754A218814824821887B
:1058E0001482482188148248218798628839C21816
:1058F000771A22A22812E97D5000FF48D51CF587AF
:105900003B830C5544494594544451838C0F26499C
:10591000A310440C39C49033D03004914210294371
:105920000D421419648D311809A48D30DC08C39D13
:10593000576089438E489620838D505662E8950FB4
:10594000060000000004FFFF000012020504050627
:10595000010406182700F81EF81EF70000000003D7
:105960000A200BF80CF887FFFFFFCF002A31F80C54
:10597000F8870F964928D582216D10524431828CC8
:10598000421E28E481729C331141F48820AD88B214
:105990000A29A998828A2969A0F1E19F032B1BF8A3
:1059A0000CF88777CBAC6F3D50C803853C50C803DB
:1059B0008595597F1FFE49002C18F80CF887FFFFCA
:1059C0006B641A79E225CD2C935032293A6C700021
:1059D0002D16F80CF887FFFA03C33C30CC03C33C08
:1059E000303EFCFF2D002E12F80CF887FFFF73836A
:1059F0001679E2250B1D1F1E2F2FF80C781C95CC55
:105A000032C9AC6499459659649945965926996569
:105A1000925926996592592699952CB3C8328B2CA8
:105A2000B34C62C5876700304DF80CF807DAC4D470
:105A3000D872CA08938A29A89872CA31A61C63C86A
:105A400039A598444A21A190528628A410220A29F7
:105A5000838C42CA18A412A314520229852453CA63
:105A600039A598538C39B5634A496698E416732969
:105A7000960FDF033119F80CF8079C480391538CFB
:105A8000B5124A13A4CCFAFFFF3E7C0F00322FF868
:105A90000CF807DA40C59A7AA990732A3452492142
:105AA00095599B641659A489562CB2DE24B3C807B5
:105AB00086796098078679607CF812003336F80C96
:105AC000F807DA40C55C7A2024528C12A7D032CB7A
:105AD00024B344D3944B4FB925CF2CB4CC5A0AA944
